{
  "transactions": [
    {
      "hash": "0xf7bd8d122555feb2f66e0c26d19fd497f45aefc9760ad0cac994941559bf6aba",
      "transactionType": "CALL",
      "contractName": null,
      "contractAddress": "0x1732621d05df25dd869213f2ee540c0887d3d18d",
      "function": "mint(address,uint256)",
      "arguments": [
        "0x11c64289f2f7b6852D196a65B656afc9D25d8327",
        "10000000000000000000000"
      ],
      "transaction": {
        "from": "0x11c64289f2f7b6852d196a65b656afc9d25d8327",
        "to": "0x1732621d05df25dd869213f2ee540c0887d3d18d",
        "gas": "0xb920",
        "value": "0x0",
        "input": "0x40c10f1900000000000000000000000011c64289f2f7b6852d196a65b656afc9d25d832700000000000000000000000000000000000000000000021e19e0c9bab2400000",
        "nonce": "0x90",
        "chainId": "0x138d5",
        "accessList": null,
        "type": null
      },
      "additionalContracts": [],
      "isFixedGasLimit": false
    }
  ],
  "receipts": [
    {
      "status": "0x1",
      "cumulativeGasUsed": "0x13138ab",
      "logs": [
        {
          "address": "0x1732621d05df25dd869213f2ee540c0887d3d18d",
          "topics": [
            "0xddf252ad1be2c89b69c2b068fc378daa952ba7f163c4a11628f55a4df523b3ef",
            "0x0000000000000000000000000000000000000000000000000000000000000000",
            "0x00000000000000000000000011c64289f2f7b6852d196a65b656afc9d25d8327"
          ],
          "data": "0x00000000000000000000000000000000000000000000021e19e0c9bab2400000",
          "blockHash": "0x0d768112d3fe329595c7057052facae0579e43468c60f2a2f55737d6b9e81246",
          "blockNumber": "0x19e8cb",
          "transactionHash": "0xf7bd8d122555feb2f66e0c26d19fd497f45aefc9760ad0cac994941559bf6aba",
          "transactionIndex": "0x60",
          "logIndex": "0x315",
          "removed": false
        }
      ],
      "logsBloom": "0x00000000000000000000000000000000000000000000000000000000000000000000000000000000000004000000080000000000000000000000000000000000000000000000000000000008000000000000000000000000000000000000000000000000020000000000000000000800000000000000000000000010000000000000000000000000000000000000000100000000000000000000000000000000000000000000000000000000000000000000000000000000000000000000000000000002000000000000000000000000000000000000008000000000000020000200000000000000100000000000000000000000000000000000000000000000",
      "type": "0x2",
      "transactionHash": "0xf7bd8d122555feb2f66e0c26d19fd497f45aefc9760ad0cac994941559bf6aba",
      "transactionIndex": "0x60",
      "blockHash": "0x0d768112d3fe329595c7057052facae0579e43468c60f2a2f55737d6b9e81246",
      "blockNumber": "0x19e8cb",
      "gasUsed": "0x8608",
      "effectiveGasPrice": "0x91c84ff",
      "from": "0x11c64289f2f7b6852d196a65b656afc9d25d8327",
      "to": "0x1732621d05df25dd869213f2ee540c0887d3d18d",
      "contractAddress": null
    }
  ],
  "libraries": [],
  "pending": [],
  "returns": {},
  "timestamp": 1713632180,
  "chain": 80085,
  "commit": "a03ec02"
}