{
  "transactions": [
    {
      "hash": "0x693aca274232a8380c717aedc3ddcd918fa2482ebb0c37646342266a5daddeda",
      "transactionType": "CALL",
      "contractName": null,
      "contractAddress": "0x1732621d05df25dd869213f2ee540c0887d3d18d",
      "function": "mint(address,uint256)",
      "arguments": [
        "0x11c64289f2f7b6852D196a65B656afc9D25d8327",
        "90000000000000000000000"
      ],
      "transaction": {
        "from": "0x11c64289f2f7b6852d196a65b656afc9d25d8327",
        "to": "0x1732621d05df25dd869213f2ee540c0887d3d18d",
        "gas": "0xb920",
        "value": "0x0",
        "input": "0x40c10f1900000000000000000000000011c64289f2f7b6852d196a65b656afc9d25d832700000000000000000000000000000000000000000000130ee8e7179044400000",
        "nonce": "0x91",
        "chainId": "0x138d5",
        "accessList": null,
        "type": null
      },
      "additionalContracts": [],
      "isFixedGasLimit": false
    }
  ],
  "receipts": [
    {
      "status": "0x1",
      "cumulativeGasUsed": "0xcba06f",
      "logs": [
        {
          "address": "0x1732621d05df25dd869213f2ee540c0887d3d18d",
          "topics": [
            "0xddf252ad1be2c89b69c2b068fc378daa952ba7f163c4a11628f55a4df523b3ef",
            "0x0000000000000000000000000000000000000000000000000000000000000000",
            "0x00000000000000000000000011c64289f2f7b6852d196a65b656afc9d25d8327"
          ],
          "data": "0x00000000000000000000000000000000000000000000130ee8e7179044400000",
          "blockHash": "0xd45a90f117d1eac31445c70a92beaf191f1c4063e86449ec790c3b9d473247b3",
          "blockNumber": "0x19e902",
          "transactionHash": "0x693aca274232a8380c717aedc3ddcd918fa2482ebb0c37646342266a5daddeda",
          "transactionIndex": "0x47",
          "logIndex": "0x32a",
          "removed": false
        }
      ],
      "logsBloom": "0x00000000000000000000000000000000000000000000000000000000000000000000000000000000000004000000080000000000000000000000000000000000000000000000000000000008000000000000000000000000000000000000000000000000020000000000000000000800000000000000000000000010000000000000000000000000000000000000000100000000000000000000000000000000000000000000000000000000000000000000000000000000000000000000000000000002000000000000000000000000000000000000008000000000000020000200000000000000100000000000000000000000000000000000000000000000",
      "type": "0x2",
      "transactionHash": "0x693aca274232a8380c717aedc3ddcd918fa2482ebb0c37646342266a5daddeda",
      "transactionIndex": "0x47",
      "blockHash": "0xd45a90f117d1eac31445c70a92beaf191f1c4063e86449ec790c3b9d473247b3",
      "blockNumber": "0x19e902",
      "gasUsed": "0x8608",
      "effectiveGasPrice": "0xd089f47",
      "from": "0x11c64289f2f7b6852d196a65b656afc9d25d8327",
      "to": "0x1732621d05df25dd869213f2ee540c0887d3d18d",
      "contractAddress": null
    }
  ],
  "libraries": [],
  "pending": [],
  "returns": {},
  "timestamp": 1713632437,
  "chain": 80085,
  "commit": "a03ec02"
}